{
  "_format": "hh-sol-artifact-1",
  "contractName": "SarkinNFTs",
  "sourceName": "contracts/721-SarkinNFTs.sol",
  "abi": [
    {
      "inputs": [],
      "stateMutability": "nonpayable",
      "type": "constructor"
    },
    {
      "anonymous": false,
      "inputs": [
        {
          "indexed": true,
          "internalType": "address",
          "name": "owner",
          "type": "address"
        },
        {
          "indexed": true,
          "internalType": "address",
          "name": "approved",
          "type": "address"
        },
        {
          "indexed": true,
          "internalType": "uint256",
          "name": "tokenId",
          "type": "uint256"
        }
      ],
      "name": "Approval",
      "type": "event"
    },
    {
      "anonymous": false,
      "inputs": [
        {
          "indexed": true,
          "internalType": "address",
          "name": "owner",
          "type": "address"
        },
        {
          "indexed": true,
          "internalType": "address",
          "name": "operator",
          "type": "address"
        },
        {
          "indexed": false,
          "internalType": "bool",
          "name": "approved",
          "type": "bool"
        }
      ],
      "name": "ApprovalForAll",
      "type": "event"
    },
    {
      "anonymous": false,
      "inputs": [
        {
          "indexed": true,
          "internalType": "address",
          "name": "from",
          "type": "address"
        },
        {
          "indexed": true,
          "internalType": "address",
          "name": "to",
          "type": "address"
        },
        {
          "indexed": true,
          "internalType": "uint256",
          "name": "tokenId",
          "type": "uint256"
        }
      ],
      "name": "Transfer",
      "type": "event"
    },
    {
      "inputs": [
        {
          "internalType": "address",
          "name": "to",
          "type": "address"
        },
        {
          "internalType": "uint256",
          "name": "tokenId",
          "type": "uint256"
        }
      ],
      "name": "approve",
      "outputs": [],
      "stateMutability": "nonpayable",
      "type": "function"
    },
    {
      "inputs": [
        {
          "internalType": "address",
          "name": "owner",
          "type": "address"
        }
      ],
      "name": "balanceOf",
      "outputs": [
        {
          "internalType": "uint256",
          "name": "",
          "type": "uint256"
        }
      ],
      "stateMutability": "view",
      "type": "function"
    },
    {
      "inputs": [
        {
          "internalType": "uint256",
          "name": "tokenId",
          "type": "uint256"
        }
      ],
      "name": "getApproved",
      "outputs": [
        {
          "internalType": "address",
          "name": "",
          "type": "address"
        }
      ],
      "stateMutability": "view",
      "type": "function"
    },
    {
      "inputs": [
        {
          "internalType": "address",
          "name": "owner",
          "type": "address"
        },
        {
          "internalType": "address",
          "name": "operator",
          "type": "address"
        }
      ],
      "name": "isApprovedForAll",
      "outputs": [
        {
          "internalType": "bool",
          "name": "",
          "type": "bool"
        }
      ],
      "stateMutability": "view",
      "type": "function"
    },
    {
      "inputs": [
        {
          "internalType": "address",
          "name": "to",
          "type": "address"
        },
        {
          "internalType": "bytes32",
          "name": "cid",
          "type": "bytes32"
        }
      ],
      "name": "mint",
      "outputs": [],
      "stateMutability": "nonpayable",
      "type": "function"
    },
    {
      "inputs": [],
      "name": "name",
      "outputs": [
        {
          "internalType": "string",
          "name": "",
          "type": "string"
        }
      ],
      "stateMutability": "view",
      "type": "function"
    },
    {
      "inputs": [
        {
          "internalType": "uint256",
          "name": "tokenId",
          "type": "uint256"
        }
      ],
      "name": "ownerOf",
      "outputs": [
        {
          "internalType": "address",
          "name": "",
          "type": "address"
        }
      ],
      "stateMutability": "view",
      "type": "function"
    },
    {
      "inputs": [
        {
          "internalType": "address",
          "name": "from",
          "type": "address"
        },
        {
          "internalType": "address",
          "name": "to",
          "type": "address"
        },
        {
          "internalType": "uint256",
          "name": "tokenId",
          "type": "uint256"
        }
      ],
      "name": "safeTransferFrom",
      "outputs": [],
      "stateMutability": "nonpayable",
      "type": "function"
    },
    {
      "inputs": [
        {
          "internalType": "address",
          "name": "from",
          "type": "address"
        },
        {
          "internalType": "address",
          "name": "to",
          "type": "address"
        },
        {
          "internalType": "uint256",
          "name": "tokenId",
          "type": "uint256"
        },
        {
          "internalType": "bytes",
          "name": "_data",
          "type": "bytes"
        }
      ],
      "name": "safeTransferFrom",
      "outputs": [],
      "stateMutability": "nonpayable",
      "type": "function"
    },
    {
      "inputs": [
        {
          "internalType": "address",
          "name": "operator",
          "type": "address"
        },
        {
          "internalType": "bool",
          "name": "approved",
          "type": "bool"
        }
      ],
      "name": "setApprovalForAll",
      "outputs": [],
      "stateMutability": "nonpayable",
      "type": "function"
    },
    {
      "inputs": [
        {
          "internalType": "bytes4",
          "name": "interfaceId",
          "type": "bytes4"
        }
      ],
      "name": "supportsInterface",
      "outputs": [
        {
          "internalType": "bool",
          "name": "",
          "type": "bool"
        }
      ],
      "stateMutability": "view",
      "type": "function"
    },
    {
      "inputs": [],
      "name": "symbol",
      "outputs": [
        {
          "internalType": "string",
          "name": "",
          "type": "string"
        }
      ],
      "stateMutability": "view",
      "type": "function"
    },
    {
      "inputs": [
        {
          "internalType": "uint256",
          "name": "tokenId",
          "type": "uint256"
        }
      ],
      "name": "tokenURI",
      "outputs": [
        {
          "internalType": "string",
          "name": "",
          "type": "string"
        }
      ],
      "stateMutability": "view",
      "type": "function"
    },
    {
      "inputs": [
        {
          "internalType": "address",
          "name": "from",
          "type": "address"
        },
        {
          "internalType": "address",
          "name": "to",
          "type": "address"
        },
        {
          "internalType": "uint256",
          "name": "tokenId",
          "type": "uint256"
        }
      ],
      "name": "transferFrom",
      "outputs": [],
      "stateMutability": "nonpayable",
      "type": "function"
    }
  ],
  "bytecode": "0x60a06040523480156200001157600080fd5b506040518060400160405280600a81526020017f4a6f6e205361726b696e000000000000000000000000000000000000000000008152506040518060400160405280600381526020017f53524b0000000000000000000000000000000000000000000000000000000000815250816000908051906020019062000096929190620000ef565b508060019080519060200190620000af929190620000ef565b5050503373ffffffffffffffffffffffffffffffffffffffff1660808173ffffffffffffffffffffffffffffffffffffffff1660601b8152505062000204565b828054620000fd906200019f565b90600052602060002090601f0160209004810192826200012157600085556200016d565b82601f106200013c57805160ff19168380011785556200016d565b828001600101855582156200016d579182015b828111156200016c5782518255916020019190600101906200014f565b5b5090506200017c919062000180565b5090565b5b808211156200019b57600081600090555060010162000181565b5090565b60006002820490506001821680620001b857607f821691505b60208210811415620001cf57620001ce620001d5565b5b50919050565b7f4e487b7100000000000000000000000000000000000000000000000000000000600052602260045260246000fd5b60805160601c61289062000223600039600061067d01526128906000f3fe608060405234801561001057600080fd5b50600436106100ea5760003560e01c80636352211e1161008c578063a22cb46511610066578063a22cb4651461025b578063b88d4fde14610277578063c87b56dd14610293578063e985e9c5146102c3576100ea565b80636352211e146101dd57806370a082311461020d57806395d89b411461023d576100ea565b8063095ea7b3116100c8578063095ea7b31461016d57806323b872dd146101895780632cfd3005146101a557806342842e0e146101c1576100ea565b806301ffc9a7146100ef57806306fdde031461011f578063081812fc1461013d575b600080fd5b61010960048036038101906101049190611a05565b6102f3565b6040516101169190611de8565b60405180910390f35b6101276103d5565b6040516101349190611e03565b60405180910390f35b61015760048036038101906101529190611a57565b610467565b6040516101649190611d81565b60405180910390f35b610187600480360381019061018291906119c9565b6104ec565b005b6101a3600480360381019061019e9190611887565b610604565b005b6101bf60048036038101906101ba919061198d565b610664565b005b6101db60048036038101906101d69190611887565b610739565b005b6101f760048036038101906101f29190611a57565b610759565b6040516102049190611d81565b60405180910390f35b61022760048036038101906102229190611822565b61080b565b6040516102349190612005565b60405180910390f35b6102456108c3565b6040516102529190611e03565b60405180910390f35b61027560048036038101906102709190611951565b610955565b005b610291600480360381019061028c91906118d6565b610ad6565b005b6102ad60048036038101906102a89190611a57565b610b38565b6040516102ba9190611e03565b60405180910390f35b6102dd60048036038101906102d8919061184b565b610bdf565b6040516102ea9190611de8565b60405180910390f35b60007f80ac58cd000000000000000000000000000000000000000000000000000000007bffffffffffffffffffffffffffffffffffffffffffffffffffffffff1916827bffffffffffffffffffffffffffffffffffffffffffffffffffffffff191614806103be57507f5b5e139f000000000000000000000000000000000000000000000000000000007bffffffffffffffffffffffffffffffffffffffffffffffffffffffff1916827bffffffffffffffffffffffffffffffffffffffffffffffffffffffff1916145b806103ce57506103cd82610c73565b5b9050919050565b6060600080546103e490612234565b80601f016020809104026020016040519081016040528092919081815260200182805461041090612234565b801561045d5780601f106104325761010080835404028352916020019161045d565b820191906000526020600020905b81548152906001019060200180831161044057829003601f168201915b5050505050905090565b600061047282610cdd565b6104b1576040517f08c379a00000000000000000000000000000000000000000000000000000000081526004016104a890611f65565b60405180910390fd5b6004600083815260200190815260200160002060009054906101000a900473ffffffffffffffffffffffffffffffffffffffff169050919050565b60006104f782610759565b90508073ffffffffffffffffffffffffffffffffffffffff168373ffffffffffffffffffffffffffffffffffffffff161415610568576040517f08c379a000000000000000000000000000000000000000000000000000000000815260040161055f90611fc5565b60405180910390fd5b8073ffffffffffffffffffffffffffffffffffffffff16610587610d49565b73ffffffffffffffffffffffffffffffffffffffff1614806105b657506105b5816105b0610d49565b610bdf565b5b6105f5576040517f08c379a00000000000000000000000000000000000000000000000000000000081526004016105ec90611ee5565b60405180910390fd5b6105ff8383610d51565b505050565b61061561060f610d49565b82610e0a565b610654576040517f08c379a000000000000000000000000000000000000000000000000000000000815260040161064b90611fe5565b60405180910390fd5b61065f838383610ee8565b505050565b3373ffffffffffffffffffffffffffffffffffffffff167f000000000000000000000000000000000000000000000000000000000000000073ffffffffffffffffffffffffffffffffffffffff16146106f2576040517f08c379a00000000000000000000000000000000000000000000000000000000081526004016106e990611ea5565b60405180910390fd5b610735828260001c6040518060400160405280600481526020017f7b69647d00000000000000000000000000000000000000000000000000000000815250611144565b5050565b61075483838360405180602001604052806000815250610ad6565b505050565b6000806002600084815260200190815260200160002060009054906101000a900473ffffffffffffffffffffffffffffffffffffffff169050600073ffffffffffffffffffffffffffffffffffffffff168173ffffffffffffffffffffffffffffffffffffffff161415610802576040517f08c379a00000000000000000000000000000000000000000000000000000000081526004016107f990611f25565b60405180910390fd5b80915050919050565b60008073ffffffffffffffffffffffffffffffffffffffff168273ffffffffffffffffffffffffffffffffffffffff16141561087c576040517f08c379a000000000000000000000000000000000000000000000000000000000815260040161087390611f05565b60405180910390fd5b600360008373ffffffffffffffffffffffffffffffffffffffff1673ffffffffffffffffffffffffffffffffffffffff168152602001908152602001600020549050919050565b6060600180546108d290612234565b80601f01602080910402602001604051908101604052809291908181526020018280546108fe90612234565b801561094b5780601f106109205761010080835404028352916020019161094b565b820191906000526020600020905b81548152906001019060200180831161092e57829003601f168201915b5050505050905090565b61095d610d49565b73ffffffffffffffffffffffffffffffffffffffff168273ffffffffffffffffffffffffffffffffffffffff1614156109cb576040517f08c379a00000000000000000000000000000000000000000000000000000000081526004016109c290611e85565b60405180910390fd5b80600560006109d8610d49565b73ffffffffffffffffffffffffffffffffffffffff1673ffffffffffffffffffffffffffffffffffffffff16815260200190815260200160002060008473ffffffffffffffffffffffffffffffffffffffff1673ffffffffffffffffffffffffffffffffffffffff16815260200190815260200160002060006101000a81548160ff0219169083151502179055508173ffffffffffffffffffffffffffffffffffffffff16610a85610d49565b73ffffffffffffffffffffffffffffffffffffffff167f17307eab39ab6107e8899845ad3d59bd9653f200f220920489ca2b5937696c3183604051610aca9190611de8565b60405180910390a35050565b610ae7610ae1610d49565b83610e0a565b610b26576040517f08c379a0000000000000000000000000000000000000000000000000000000008152600401610b1d90611fe5565b60405180910390fd5b610b328484848461119f565b50505050565b6060610b4382610cdd565b610b82576040517f08c379a0000000000000000000000000000000000000000000000000000000008152600401610b7990611fa5565b60405180910390fd5b6000610b8c6111fb565b90506000815111610bac5760405180602001604052806000815250610bd7565b80610bb684611212565b604051602001610bc7929190611d5d565b6040516020818303038152906040525b915050919050565b6000600560008473ffffffffffffffffffffffffffffffffffffffff1673ffffffffffffffffffffffffffffffffffffffff16815260200190815260200160002060008373ffffffffffffffffffffffffffffffffffffffff1673ffffffffffffffffffffffffffffffffffffffff16815260200190815260200160002060009054906101000a900460ff16905092915050565b60007f01ffc9a7000000000000000000000000000000000000000000000000000000007bffffffffffffffffffffffffffffffffffffffffffffffffffffffff1916827bffffffffffffffffffffffffffffffffffffffffffffffffffffffff1916149050919050565b60008073ffffffffffffffffffffffffffffffffffffffff166002600084815260200190815260200160002060009054906101000a900473ffffffffffffffffffffffffffffffffffffffff1673ffffffffffffffffffffffffffffffffffffffff1614159050919050565b600033905090565b816004600083815260200190815260200160002060006101000a81548173ffffffffffffffffffffffffffffffffffffffff021916908373ffffffffffffffffffffffffffffffffffffffff160217905550808273ffffffffffffffffffffffffffffffffffffffff16610dc483610759565b73ffffffffffffffffffffffffffffffffffffffff167f8c5be1e5ebec7d5bd14f71427d1e84f3dd0314c0f7b2291e5b200ac8c7c3b92560405160405180910390a45050565b6000610e1582610cdd565b610e54576040517f08c379a0000000000000000000000000000000000000000000000000000000008152600401610e4b90611ec5565b60405180910390fd5b6000610e5f83610759565b90508073ffffffffffffffffffffffffffffffffffffffff168473ffffffffffffffffffffffffffffffffffffffff161480610ece57508373ffffffffffffffffffffffffffffffffffffffff16610eb684610467565b73ffffffffffffffffffffffffffffffffffffffff16145b80610edf5750610ede8185610bdf565b5b91505092915050565b8273ffffffffffffffffffffffffffffffffffffffff16610f0882610759565b73ffffffffffffffffffffffffffffffffffffffff1614610f5e576040517f08c379a0000000000000000000000000000000000000000000000000000000008152600401610f5590611f85565b60405180910390fd5b600073ffffffffffffffffffffffffffffffffffffffff168273ffffffffffffffffffffffffffffffffffffffff161415610fce576040517f08c379a0000000000000000000000000000000000000000000000000000000008152600401610fc590611e65565b60405180910390fd5b610fd98383836113bf565b610fe4600082610d51565b6001600360008573ffffffffffffffffffffffffffffffffffffffff1673ffffffffffffffffffffffffffffffffffffffff16815260200190815260200160002060008282546110349190612140565b925050819055506001600360008473ffffffffffffffffffffffffffffffffffffffff1673ffffffffffffffffffffffffffffffffffffffff168152602001908152602001600020600082825461108b91906120b9565b92505081905550816002600083815260200190815260200160002060006101000a81548173ffffffffffffffffffffffffffffffffffffffff021916908373ffffffffffffffffffffffffffffffffffffffff160217905550808273ffffffffffffffffffffffffffffffffffffffff168473ffffffffffffffffffffffffffffffffffffffff167fddf252ad1be2c89b69c2b068fc378daa952ba7f163c4a11628f55a4df523b3ef60405160405180910390a4505050565b61114e83836113c4565b61115b6000848484611592565b61119a576040517f08c379a000000000000000000000000000000000000000000000000000000000815260040161119190611e25565b60405180910390fd5b505050565b6111aa848484610ee8565b6111b684848484611592565b6111f5576040517f08c379a00000000000000000000000000000000000000000000000000000000081526004016111ec90611e25565b60405180910390fd5b50505050565b606060405180602001604052806000815250905090565b6060600082141561125a576040518060400160405280600181526020017f300000000000000000000000000000000000000000000000000000000000000081525090506113ba565b600082905060005b6000821461128c57808061127590612297565b915050600a82611285919061210f565b9150611262565b60008167ffffffffffffffff8111156112ce577f4e487b7100000000000000000000000000000000000000000000000000000000600052604160045260246000fd5b6040519080825280601f01601f1916602001820160405280156113005781602001600182028036833780820191505090505b5090505b600085146113b3576001826113199190612140565b9150600a8561132891906122e0565b603061133491906120b9565b60f81b818381518110611370577f4e487b7100000000000000000000000000000000000000000000000000000000600052603260045260246000fd5b60200101907effffffffffffffffffffffffffffffffffffffffffffffffffffffffffffff1916908160001a905350600a856113ac919061210f565b9450611304565b8093505050505b919050565b505050565b600073ffffffffffffffffffffffffffffffffffffffff168273ffffffffffffffffffffffffffffffffffffffff161415611434576040517f08c379a000000000000000000000000000000000000000000000000000000000815260040161142b90611f45565b60405180910390fd5b61143d81610cdd565b1561147d576040517f08c379a000000000000000000000000000000000000000000000000000000000815260040161147490611e45565b60405180910390fd5b611489600083836113bf565b6001600360008473ffffffffffffffffffffffffffffffffffffffff1673ffffffffffffffffffffffffffffffffffffffff16815260200190815260200160002060008282546114d991906120b9565b92505081905550816002600083815260200190815260200160002060006101000a81548173ffffffffffffffffffffffffffffffffffffffff021916908373ffffffffffffffffffffffffffffffffffffffff160217905550808273ffffffffffffffffffffffffffffffffffffffff16600073ffffffffffffffffffffffffffffffffffffffff167fddf252ad1be2c89b69c2b068fc378daa952ba7f163c4a11628f55a4df523b3ef60405160405180910390a45050565b60006115b38473ffffffffffffffffffffffffffffffffffffffff16611729565b1561171c578373ffffffffffffffffffffffffffffffffffffffff1663150b7a026115dc610d49565b8786866040518563ffffffff1660e01b81526004016115fe9493929190611d9c565b602060405180830381600087803b15801561161857600080fd5b505af192505050801561164957506040513d601f19601f820116820180604052508101906116469190611a2e565b60015b6116cc573d8060008114611679576040519150601f19603f3d011682016040523d82523d6000602084013e61167e565b606091505b506000815114156116c4576040517f08c379a00000000000000000000000000000000000000000000000000000000081526004016116bb90611e25565b60405180910390fd5b805181602001fd5b63150b7a0260e01b7bffffffffffffffffffffffffffffffffffffffffffffffffffffffff1916817bffffffffffffffffffffffffffffffffffffffffffffffffffffffff191614915050611721565b600190505b949350505050565b600080823b905060008111915050919050565b600061174f61174a84612045565b612020565b90508281526020810184848401111561176757600080fd5b6117728482856121f2565b509392505050565b600081359050611789816127e7565b92915050565b60008135905061179e816127fe565b92915050565b6000813590506117b381612815565b92915050565b6000813590506117c88161282c565b92915050565b6000815190506117dd8161282c565b92915050565b600082601f8301126117f457600080fd5b813561180484826020860161173c565b91505092915050565b60008135905061181c81612843565b92915050565b60006020828403121561183457600080fd5b60006118428482850161177a565b91505092915050565b6000806040838503121561185e57600080fd5b600061186c8582860161177a565b925050602061187d8582860161177a565b9150509250929050565b60008060006060848603121561189c57600080fd5b60006118aa8682870161177a565b93505060206118bb8682870161177a565b92505060406118cc8682870161180d565b9150509250925092565b600080600080608085870312156118ec57600080fd5b60006118fa8782880161177a565b945050602061190b8782880161177a565b935050604061191c8782880161180d565b925050606085013567ffffffffffffffff81111561193957600080fd5b611945878288016117e3565b91505092959194509250565b6000806040838503121561196457600080fd5b60006119728582860161177a565b92505060206119838582860161178f565b9150509250929050565b600080604083850312156119a057600080fd5b60006119ae8582860161177a565b92505060206119bf858286016117a4565b9150509250929050565b600080604083850312156119dc57600080fd5b60006119ea8582860161177a565b92505060206119fb8582860161180d565b9150509250929050565b600060208284031215611a1757600080fd5b6000611a25848285016117b9565b91505092915050565b600060208284031215611a4057600080fd5b6000611a4e848285016117ce565b91505092915050565b600060208284031215611a6957600080fd5b6000611a778482850161180d565b91505092915050565b611a8981612174565b82525050565b611a9881612186565b82525050565b6000611aa982612076565b611ab3818561208c565b9350611ac3818560208601612201565b611acc816123cd565b840191505092915050565b6000611ae282612081565b611aec818561209d565b9350611afc818560208601612201565b611b05816123cd565b840191505092915050565b6000611b1b82612081565b611b2581856120ae565b9350611b35818560208601612201565b80840191505092915050565b6000611b4e60328361209d565b9150611b59826123de565b604082019050919050565b6000611b71601c8361209d565b9150611b7c8261242d565b602082019050919050565b6000611b9460248361209d565b9150611b9f82612456565b604082019050919050565b6000611bb760198361209d565b9150611bc2826124a5565b602082019050919050565b6000611bda600d8361209d565b9150611be5826124ce565b602082019050919050565b6000611bfd602c8361209d565b9150611c08826124f7565b604082019050919050565b6000611c2060388361209d565b9150611c2b82612546565b604082019050919050565b6000611c43602a8361209d565b9150611c4e82612595565b604082019050919050565b6000611c6660298361209d565b9150611c71826125e4565b604082019050919050565b6000611c8960208361209d565b9150611c9482612633565b602082019050919050565b6000611cac602c8361209d565b9150611cb78261265c565b604082019050919050565b6000611ccf60298361209d565b9150611cda826126ab565b604082019050919050565b6000611cf2602f8361209d565b9150611cfd826126fa565b604082019050919050565b6000611d1560218361209d565b9150611d2082612749565b604082019050919050565b6000611d3860318361209d565b9150611d4382612798565b604082019050919050565b611d57816121e8565b82525050565b6000611d698285611b10565b9150611d758284611b10565b91508190509392505050565b6000602082019050611d966000830184611a80565b92915050565b6000608082019050611db16000830187611a80565b611dbe6020830186611a80565b611dcb6040830185611d4e565b8181036060830152611ddd8184611a9e565b905095945050505050565b6000602082019050611dfd6000830184611a8f565b92915050565b60006020820190508181036000830152611e1d8184611ad7565b905092915050565b60006020820190508181036000830152611e3e81611b41565b9050919050565b60006020820190508181036000830152611e5e81611b64565b9050919050565b60006020820190508181036000830152611e7e81611b87565b9050919050565b60006020820190508181036000830152611e9e81611baa565b9050919050565b60006020820190508181036000830152611ebe81611bcd565b9050919050565b60006020820190508181036000830152611ede81611bf0565b9050919050565b60006020820190508181036000830152611efe81611c13565b9050919050565b60006020820190508181036000830152611f1e81611c36565b9050919050565b60006020820190508181036000830152611f3e81611c59565b9050919050565b60006020820190508181036000830152611f5e81611c7c565b9050919050565b60006020820190508181036000830152611f7e81611c9f565b9050919050565b60006020820190508181036000830152611f9e81611cc2565b9050919050565b60006020820190508181036000830152611fbe81611ce5565b9050919050565b60006020820190508181036000830152611fde81611d08565b9050919050565b60006020820190508181036000830152611ffe81611d2b565b9050919050565b600060208201905061201a6000830184611d4e565b92915050565b600061202a61203b565b90506120368282612266565b919050565b6000604051905090565b600067ffffffffffffffff8211156120605761205f61239e565b5b612069826123cd565b9050602081019050919050565b600081519050919050565b600081519050919050565b600082825260208201905092915050565b600082825260208201905092915050565b600081905092915050565b60006120c4826121e8565b91506120cf836121e8565b9250827fffffffffffffffffffffffffffffffffffffffffffffffffffffffffffffffff0382111561210457612103612311565b5b828201905092915050565b600061211a826121e8565b9150612125836121e8565b92508261213557612134612340565b5b828204905092915050565b600061214b826121e8565b9150612156836121e8565b92508282101561216957612168612311565b5b828203905092915050565b600061217f826121c8565b9050919050565b60008115159050919050565b6000819050919050565b60007fffffffff0000000000000000000000000000000000000000000000000000000082169050919050565b600073ffffffffffffffffffffffffffffffffffffffff82169050919050565b6000819050919050565b82818337600083830152505050565b60005b8381101561221f578082015181840152602081019050612204565b8381111561222e576000848401525b50505050565b6000600282049050600182168061224c57607f821691505b602082108114156122605761225f61236f565b5b50919050565b61226f826123cd565b810181811067ffffffffffffffff8211171561228e5761228d61239e565b5b80604052505050565b60006122a2826121e8565b91507fffffffffffffffffffffffffffffffffffffffffffffffffffffffffffffffff8214156122d5576122d4612311565b5b600182019050919050565b60006122eb826121e8565b91506122f6836121e8565b92508261230657612305612340565b5b828206905092915050565b7f4e487b7100000000000000000000000000000000000000000000000000000000600052601160045260246000fd5b7f4e487b7100000000000000000000000000000000000000000000000000000000600052601260045260246000fd5b7f4e487b7100000000000000000000000000000000000000000000000000000000600052602260045260246000fd5b7f4e487b7100000000000000000000000000000000000000000000000000000000600052604160045260246000fd5b6000601f19601f8301169050919050565b7f4552433732313a207472616e7366657220746f206e6f6e20455243373231526560008201527f63656976657220696d706c656d656e7465720000000000000000000000000000602082015250565b7f4552433732313a20746f6b656e20616c7265616479206d696e74656400000000600082015250565b7f4552433732313a207472616e7366657220746f20746865207a65726f2061646460008201527f7265737300000000000000000000000000000000000000000000000000000000602082015250565b7f4552433732313a20617070726f766520746f2063616c6c657200000000000000600082015250565b7f4163636573732044656e69656400000000000000000000000000000000000000600082015250565b7f4552433732313a206f70657261746f7220717565727920666f72206e6f6e657860008201527f697374656e7420746f6b656e0000000000000000000000000000000000000000602082015250565b7f4552433732313a20617070726f76652063616c6c6572206973206e6f74206f7760008201527f6e6572206e6f7220617070726f76656420666f7220616c6c0000000000000000602082015250565b7f4552433732313a2062616c616e636520717565727920666f7220746865207a6560008201527f726f206164647265737300000000000000000000000000000000000000000000602082015250565b7f4552433732313a206f776e657220717565727920666f72206e6f6e657869737460008201527f656e7420746f6b656e0000000000000000000000000000000000000000000000602082015250565b7f4552433732313a206d696e7420746f20746865207a65726f2061646472657373600082015250565b7f4552433732313a20617070726f76656420717565727920666f72206e6f6e657860008201527f697374656e7420746f6b656e0000000000000000000000000000000000000000602082015250565b7f4552433732313a207472616e73666572206f6620746f6b656e2074686174206960008201527f73206e6f74206f776e0000000000000000000000000000000000000000000000602082015250565b7f4552433732314d657461646174613a2055524920717565727920666f72206e6f60008201527f6e6578697374656e7420746f6b656e0000000000000000000000000000000000602082015250565b7f4552433732313a20617070726f76616c20746f2063757272656e74206f776e6560008201527f7200000000000000000000000000000000000000000000000000000000000000602082015250565b7f4552433732313a207472616e736665722063616c6c6572206973206e6f74206f60008201527f776e6572206e6f7220617070726f766564000000000000000000000000000000602082015250565b6127f081612174565b81146127fb57600080fd5b50565b61280781612186565b811461281257600080fd5b50565b61281e81612192565b811461282957600080fd5b50565b6128358161219c565b811461284057600080fd5b50565b61284c816121e8565b811461285757600080fd5b5056fea2646970667358221220788baf71d73d96a2ed75c1cbd9c164179765fde6034f54bb0b5ebe5457a7b61264736f6c63430008040033",
  "linkReferences": {},
  "deployedLinkReferences": {}
}